:10000000EEC0000014C1000012C1000010C10000C9
:100010000EC100000CC100000AC1000008C10000B0
:1000200006C1000004C100000C94DC160C945A15A3
:10003000FEC00000FCC00000FAC00000F8C00000D4
:10004000F6C00000F4C00000F2C00000F0C00000E4
:1000500049C20000ECC00000EAC000000C949814F3
:10006000E6C00000E4C00000E2C00000E0C0000004
:10007000DEC00000DCC00000DAC00000D8C0000014
:10008000D6C00000D4C00000D2C00000D0C0000024
:10009000CEC00000CCC00000CAC00000C8C0000034
:1000A000C6C00000C4C00000C2C00000012302237B
:1000B0000423082380230129022904290829402632
:1000C000802640298029102320234023802F402F81
:1000D000202F102F022F012F10292029402C7DFDC9
:1000E0007DFB7DF77DEF7DDF7E7F7EBF7EDF7EEF58
:1000F0007EFD7EFE7DFE0001040506070D0C0B0A49
:1001000009080A0B0C0D0706050401000800010090
:100110000041011200020000530143000300009659
:100120000104010309049A011802030904B4011629
:1001300003030904CC010C0001C1020180360181D6
:10014000361201000202000020C0168304000101E3
:1001500002030109024300020100C0320904000049
:100160000102020100052400100105240100010420
:100170002402060524060001070582030800400941
:10018000040100020A000000070503024000000706
:1001900005840240000004030904180354006500AC
:1001A00065006E00730079006400750069006E00E0
:1001B0006F0000001603550053004200200053005A
:1001C00065007200690061006C0000000C033100E2
:1001D00032003300340035000000D5110719112416
:1001E0001FBECFEFDAE0DEBFCDBF11E0A0E0B1E08F
:1001F000EEECF3E302C005900D92A032B107D9F7FF
:1002000011E0A0E2B1E001C01D92A336B107E1F711
:1002100011E0CEEDD1E004C02297FE010E94E11969
:10022000CA3DD107C9F70E9456170C94E519E8CECC
:10023000DC0101C06D9341505040E0F70895E0911A
:100240002001F091210180E090E010821282118261
:100250000196339686399105C1F782E291E00C94BC
:10026000420903C082E291E059D187E591E00E9402
:100270007417892BB9F382E291E041D187E591E0CF
:100280000C94AD17CF92DF92EF92FF920F931F93D2
:10029000CF93DF93E6DF8F3F910599F5E2DF892B5E
:1002A000A1F5DFDF892B89F5DCDF6C01EE24FF246B
:1002B000C0E0D0E01FC000912001109121010C0F7F
:1002C0001D1FCFDFF80180830091200110912101D3
:1002D0000C0F1D1FC6DFF8018183009120011091D2
:1002E00021010C0F1D1FBDDFF80182830894E11C62
:1002F000F11C2396EC14FD04F4F282E291E0C2D7E3
:1003000004C09DDF82E291E009D1DF91CF911F917E
:100310000F91FF90EF90DF90CF900895EF92FF92B2
:100320000F931F93CF93DF9387E591E040E052EC6A
:1003300061E070E00E94251982EC91E090932A011F
:100340008093290110922E0110922F0110923001FA
:100350001092310110922C010E944C1302E311E023
:1003600080933201909333014091290150912A01E9
:1003700060E070E05DDF8091320190913301209167
:10038000290130912A01820F931F909335018093A8
:100390003401C801409768E070E0CED0C8014097B2
:1003A00062E070E00E947F11C80140970E94121322
:1003B000C8014097A4D0809132019091330190936D
:1003C00021018093200100E010E082ECE82E81E022
:1003D000F82EE0912001F0912101DF01C7011D926B
:1003E0000197E9F7C0E0D0E02DC00130110559F0C8
:1003F0000230110561F00115110559F4F901E80FFA
:10040000F91FC08306C01196CC93119702C0FA0160
:10041000C283039613964D5F5F4FF1E0823C9F07C6
:1004200021F782E291E02ED761E070E080E090E079
:100430000E94D814219661E0C030D60719F4CFEF9E
:10044000D0E033C02091200130912101A901D901D0
:1004500080E090E0CACF0130110559F0023011055B
:1004600061F00115110559F4F901E80FF91FC08376
:1004700006C01196CC93119702C0FA01C28303966D
:1004800013964D5F5F4FF1E0823C9F0721F782E2B8
:1004900091E0F8D661E070E080E090E00E94D8142E
:1004A00021976FEFCF3FD60749F02091200130917F
:1004B0002101A901D90180E090E0CDCF0F5F1F4F4E
:1004C0000330110509F085CFBADE61E070E080E00D
:1004D00090E00E94D814DF91CF911F910F91FF906F
:1004E000EF9008951F921090400111FC06C010FE7D
:1004F00002C01F90FCC01F904AC61F90A3C0FC0101
:100500009385892F8150823010F0943031F480919E
:1005100081009081892B809381000895FC0193854F
:10052000892F8150823010F0943029F4809181001D
:10053000887F809381000895FC0163876093400168
:100540006230710509F16430710579F1613071052E
:1005500071F582E0809345018EEF809344012781FD
:100560003085C90168E170E00E949619892B49F431
:10057000C90168E170E00E949619609346016530F8
:10058000B0F01092460113C087819085459714F012
:1005900088E001C083E08093450181958093440108
:1005A000809148018093470102C0109245018091DB
:1005B0002D018830F1F0893038F48230B9F0843080
:1005C00091F08130E9F40CC0803299F0813218F456
:1005D0008031B1F411C0803479F0803889F409C0D9
:1005E00085E390E00BC082E390E008C081E490E0F6
:1005F00005C089E190E002C085E090E092838183AC
:1006000083858830E9F0893038F4823089F084308D
:10061000B9F08130B1F414C0803291F0813218F415
:10062000803179F40DC0803459F0803851F408C01D
:10063000818787819085459724F083E0818708959D
:10064000118608951F920F920FB60F9211242F93C7
:100650003F938F939F93EF93FF93309147012091A6
:1006600002013323E1F0E0914201F09143018291D4
:10067000281710F490E901C090E88291281708F437
:1006800091603197F0934301E093420180812817F4
:1006900008F494609EBD3150309347011DC0289AE4
:1006A00080913401909135019093430180934201F0
:1006B000289880914401821720F080914501820F93
:1006C00001C081E080930201289A809148018093C3
:1006D0004701289880E88EBDFF91EF919F918F91FF
:1006E0003F912F910F900FBE0F901F9018951F9262
:1006F0000F920FB60F9211242F933F934F935F9356
:100700008F939F93EF93FF93909101018091440108
:10071000891710F481E003C080914501890F80930F
:100720000101289880914601823009F444C3833046
:1007300020F4813009F0B0C42FC4833009F4D8C14B
:10074000843009F0A9C4E0914201F0914301209165
:1007500001018291821710F090E801C090E082912F
:10076000821708F090648291821708F0906282915B
:10077000821708F090618291821708F09860829148
:10078000821708F094608291821708F0926082913B
:10079000821708F091609EBD8291821710F090E858
:1007A00001C090E08291821708F0906482918217D4
:1007B00008F090628291821708F09061829182170E
:1007C00008F098608291821708F0946082918217F5
:1007D00008F092608291821708F091600DB407FED4
:1007E000FDCF9EBD8291821710F090E801C090E08D
:1007F0008291821708F090648291821708F09062CB
:100800008291821708F090618291821708F09860B7
:100810008291821708F094608291821708F09260AA
:100820008291821708F091600DB407FEFDCF9EBD46
:100830008291821710F090E801C090E082918217B7
:1008400008F090648291821708F09062829182177A
:1008500008F090618291821708F098608291821767
:1008600008F094608291821708F09260829182175A
:1008700008F091600DB407FEFDCF9EBD82918217F6
:1008800010F090E801C090E08291821708F0906427
:100890008291821708F090628291821708F090612D
:1008A0008291821708F098608291821708F0946014
:1008B0008291821708F092608291821708F091600D
:1008C0000DB407FEFDCF9EBD8291821710F090E817
:1008D00001C090E08291821708F0906482918217A3
:1008E00008F090628291821708F0906182918217DD
:1008F00008F098608291821708F0946082918217C4
:1009000008F092608291821708F091600DB407FEA2
:10091000FDCF9EBD8291821710F090E801C090E05B
:100920008291821708F090648291821708F0906299
:100930008291821708F090618291821708F0986086
:100940008291821708F094608291821708F0926079
:100950008291821708F091600DB407FEFDCF9EBD15
:100960008291821710F090E801C090E08291821786
:1009700008F090648291821708F090628291821749
:1009800008F090618291821708F098608291821736
:1009900008F094608291821708F092608291821729
:1009A00008F091600DB407FEFDCF9EBD82918217C5
:1009B00010F090E801C090E08291821708F09064F6
:1009C0008291821708F090628291821708F09061FC
:1009D0008291821708F098608291821708F09460E3
:1009E0008291821708F092608291821708F09160DC
:1009F0000DB407FEFDCF9EBD8291821710F090E8E6
:100A000001C090E08291821708F090648291821771
:100A100008F090628291821708F0906182918217AB
:100A200008F098608291821708F094608291821792
:100A300008F092608291821708F091600DB407FE71
:100A4000FDCF9EBD8291821710F090E801C090E02A
:100A50008291821708F090648291821708F0906268
:100A60008291821708F090618291821708F0986055
:100A70008291821708F094608291821708F0926048
:100A80008291821708F091600DB407FEFDCF9EBDE4
:100A90008291821710F090E801C090E08291821755
:100AA00008F090648291821708F090628291821718
:100AB00008F090618291821708F098608291821705
:100AC00008F094603197F0934301E09342018081F4
:100AD000821708F092603197F0934301E09342014E
:100AE0008081821708F091600DB407FEFDCFD2C25D
:100AF000E0914201F091430120910101829182171E
:100B000010F090E801C090E08291821708F09064A4
:100B10008291821708F090628291821708F09061AA
:100B20008291821708F098608291821708F0946091
:100B30008291821708F092608291821708F091608A
:100B40009EBD8291821710F090E801C090E08291E2
:100B5000821708F090648291821708F09062829167
:100B6000821708F090618291821708F09860829154
:100B7000821708F094608291821708F09260829147
:100B8000821708F091600DB407FEFDCF9EBD8291E3
:100B9000821710F090E801C090E08291821708F06F
:100BA00090648291821708F090628291821708F017
:100BB00090618291821708F098608291821708F004
:100BC00094608291821708F092608291821708F0F7
:100BD00091600DB407FEFDCF9EBD8291821710F08B
:100BE00090E801C090E08291821708F090648291B1
:100BF000821708F090628291821708F090618291CA
:100C0000821708F098608291821708F094608291B0
:100C1000821708F092608291821708F091600DB4FB
:100C200007FEFDCF9EBD8291821710F090E801C0B3
:100C300090E08291821708F090648291821708F008
:100C400090628291821708F090618291821708F079
:100C500098608291821708F094608291821708F060
:100C600092608291821708F091600DB407FEFDCF6B
:100C70009EBD8291821710F090E801C090E08291B1
:100C8000821708F090648291821708F09062829136
:100C9000821708F090618291821708F09860829123
:100CA000821708F094608291821708F09260829116
:100CB000821708F091600DB407FEFDCF9EBD8291B2
:100CC000821710F090E801C090E08291821708F03E
:100CD00090648291821708F090628291821708F0E6
:100CE00090618291821708F098608291821708F0D3
:100CF00094608291821708F092608291821708F0C6
:100D000091600DB407FEFDCF9EBD8291821710F059
:100D100090E801C090E08291821708F0906482917F
:100D2000821708F090628291821708F09061829198
:100D3000821708F098608291821708F0946082917F
:100D4000821708F092608291821708F091600DB4CA
:100D500007FEFDCF9EBD8291821710F090E801C082
:100D600090E08291821708F090648291821708F0D7
:100D700090628291821708F090618291821708F048
:100D800098608291821708F094603197F093430144
:100D9000E09342018081821708F092603197F093CE
:100DA0004301E09342018081821708F091600DB405
:100DB00007FEFDCF6FC1E0914201F0914301209108
:100DC00001018291821710F090E801C090E08291B9
:100DD000821708F090648291821708F090628291E5
:100DE000821708F090618291821708F098608291D2
:100DF000821708F094608291821708F092608291C5
:100E0000821708F091609EBD8291821710F090E8E1
:100E100001C090E08291821708F09064829182175D
:100E200008F090628291821708F090618291821797
:100E300008F098608291821708F09460829182177E
:100E400008F092608291821708F091600DB407FE5D
:100E5000FDCF9EBD8291821710F090E801C090E016
:100E60008291821708F090648291821708F0906254
:100E70008291821708F090618291821708F0986041
:100E80008291821708F094608291821708F0926034
:100E90008291821708F091600DB407FEFDCF9EBDD0
:100EA0008291821710F090E801C090E08291821741
:100EB00008F090648291821708F090628291821704
:100EC00008F090618291821708F0986082918217F1
:100ED00008F094608291821708F0926082918217E4
:100EE00008F091600DB407FEFDCF9EBD8291821780
:100EF00010F090E801C090E08291821708F09064B1
:100F00008291821708F090628291821708F09061B6
:100F10008291821708F098608291821708F094609D
:100F20008291821708F092608291821708F0916096
:100F30000DB407FEFDCF9EBD8291821710F090E8A0
:100F400001C090E08291821708F09064829182172C
:100F500008F090628291821708F090618291821766
:100F600008F098608291821708F094603197F093AE
:100F70004301E09342018081821708F0926031972B
:100F8000F0934301E09342018081821708F0916061
:100F90000DB407FEFDCF7EC0E0914201F091430108
:100FA000209101018291821710F090E801C090E039
:100FB0008291821708F090648291821708F0906203
:100FC0008291821708F090618291821708F09860F0
:100FD0008291821708F094608291821708F09260E3
:100FE0008291821708F091609EBD8291821710F065
:100FF00090E801C090E08291821708F0906482919D
:10100000821708F090628291821708F090618291B5
:10101000821708F098608291821708F0946082919C
:10102000821708F092608291821708F091600DB4E7
:1010300007FEFDCF9EBD8291821710F090E801C09F
:1010400090E08291821708F090648291821708F0F4
:1010500090628291821708F090618291821708F065
:1010600098608291821708F094603197F093430161
:10107000E09342018081821708F092603197F093EB
:101080004301E09342018081821708F091600DB422
:1010900007FEFDCF9EBD65C0E0914201F091430186
:1010A000409101018291841710F090E801C090E016
:1010B0008291841708F090648291841708F09062FE
:1010C0008291841708F090618291841708F09860EB
:1010D0008291841708F094608291841708F09260DE
:1010E0003197F0934301E09342018081841708F027
:1010F00091609EBD509129019F013897521B29C0D4
:101100008781841710F090E801C090E086818417F1
:1011100008F090648581841708F0906284818417B8
:1011200008F090618381841708F0986082818417A9
:1011300008F094608181841708F0926080818417A0
:1011400008F091600DB407FEFDCF9EBD28503040E1
:101150003897852F820F89309CF620934201309377
:101160004301289A80913401909135019093430175
:1011700080934201FF91EF919F918F915F914F91E9
:101180003F912F910F900FBE0F901F9018951F92B7
:101190000F920FB60F9211242F933F938F939F932B
:1011A000AF93BF93EF93FF9380912D01843009F0AB
:1011B0005CC0809100018130D9F41EBC80912C016B
:1011C000813089F41092000110922C010DB407FEB9
:1011D000FDCF1EBC80913201909133019093430169
:1011E0008093420142C00DB407FEFDCF1EBC3DC03E
:1011F000E0914201F0914301DF0111968081282F97
:1012000030E0287F30703695322F2227379527958A
:101210003068818190E0887F9070880F991F880FD7
:10122000991F282B392B11968C91119790E0E3E0B0
:1012300095958795EA95E1F7282B392B1296B0936F
:101240004301A09342010DB407FEFDCF3EBD809146
:10125000340190913501A817B90719F481E0809302
:1012600000010DB407FEFDCF2EBDFF91EF91BF91A0
:10127000AF919F918F913F912F910F900FBE0F9043
:101280001F901895CF93DF93EC0181E08A878091BE
:101290002D01883099F5F894E889F9892A893B89E4
:1012A00080914101882321F581E080934101DF0194
:1012B0008D918EBD0DB407FEFDCFFD0181918EBDD8
:1012C0000DB407FEFDCF11968C918EBD319610C0E6
:1012D0000DB407FEFDCF80818EBD0DB407FEFDCF9E
:1012E00081818EBD0DB407FEFDCF82818EBD339608
:1012F000E217F30769F71A867894FEC7803809F079
:101300003DC0F894E889F9892A893B891EBC0DB44F
:1013100007FEFDCF1EBC0DB407FEFDCF1EBC0DB4F5
:1013200007FEFDCF1EBC0DB407FEFDCF1EBC0DB4E5
:1013300007FEFDCF1EBC0DB407FEFDCF2A98299AEB
:1013400029982A98299A299813C02A9A299A29987B
:1013500080818EBD0DB407FEFDCF81818EBD0DB4A1
:1013600007FEFDCF82818EBD0DB407FEFDCF339603
:10137000E217F30751F71A867894BEC7803409F054
:10138000ADC4F8941A86A889B98940E050E09EC49B
:10139000CA01880F991FEE89FF89E80FF91F608144
:1013A00071816A0F7B1FE0913601F0913701E80FE0
:1013B000F91F0190F081E02DEE0FFF1FE455FF4F64
:1013C0002491EA8DFB8DE80FF91F0190F081E02D4B
:1013D000EF37F10509F072C477C43C9137FF16C0AE
:1013E0008081822B808300140014001400140014E8
:1013F000001400140014001400140014001400144D
:101400000014001480818923808315C08081822B81
:1014100080830014001480818923808300140014C9
:10142000001400140014001400140014001400141C
:101430000014001400140014001436FF16C080813C
:10144000822B808300140014001400140014001474
:1014500000140014001400140014001400140014EC
:10146000001480818923808315C08081822B808332
:101470000014001480818923808300140014001458
:1014800000140014001400140014001400140014BC
:10149000001400140014001435FF16C08081822B44
:1014A00080830014001400140014001400140014AD
:1014B000001400140014001400140014001400148C
:1014C00080818923808315C08081822B80830014D2
:1014D00000148081892380830014001400140014F8
:1014E000001400140014001400140014001400145C
:1014F00000140014001434FF16C08081822B8083F6
:10150000001400140014001400140014001400143B
:10151000001400140014001400140014001480813E
:101520008923808315C08081822B8083001400145E
:101530008081892380830014001400140014001497
:1015400000140014001400140014001400140014FB
:101550000014001433FF16C08081822B8083001496
:1015600000140014001400140014001400140014DB
:101570000014001400140014001400148081892346
:10158000808315C08081822B8083001400148081A9
:101590008923808300140014001400140014001424
:1015A000001400140014001400140014001400149B
:1015B000001432FF16C08081822B80830014001437
:1015C000001400140014001400140014001400147B
:1015D00000140014001400140014808189238083F7
:1015E00015C08081822B80830014001480818923A0
:1015F000808300140014001400140014001400145C
:10160000001400140014001400140014001400143A
:1016100031FF16C08081822B8083001400140014D7
:10162000001400140014001400140014001400141A
:10163000001400140014001480818923808315C0D5
:101640008081822B80830014001480818923808311
:1016500000140014001400140014001400140014EA
:10166000001400140014001400140014001430FFBF
:1016700016C08081822B8083001400140014001493
:1016800000140014001400140014001400140014BA
:1016900000140014001480818923808315C0808188
:1016A000822B80830014001480818923808300149E
:1016B000001400140014001400140014001400148A
:1016C00000140014001400140014001411963C912E
:1016D000119737FF16C08081822B8083001400147D
:1016E000001400140014001400140014001400145A
:1016F00000140014001400140014808189238083D6
:1017000015C08081822B808300140014808189237E
:10171000808300140014001400140014001400143A
:101720000014001400140014001400140014001419
:1017300036FF16C08081822B8083001400140014B1
:1017400000140014001400140014001400140014F9
:10175000001400140014001480818923808315C0B4
:101760008081822B808300140014808189238083F0
:1017700000140014001400140014001400140014C9
:10178000001400140014001400140014001435FF99
:1017900016C08081822B8083001400140014001472
:1017A0000014001400140014001400140014001499
:1017B00000140014001480818923808315C0808167
:1017C000822B80830014001480818923808300147D
:1017D0000014001400140014001400140014001469
:1017E00000140014001400140014001434FF16C078
:1017F0008081822B808300140014001400140014D4
:101800000014001400140014001400140014001438
:101810000014001480818923808315C08081822B6D
:1018200080830014001480818923808300140014B5
:101830000014001400140014001400140014001408
:101840000014001400140014001433FF16C080812B
:10185000822B808300140014001400140014001460
:1018600000140014001400140014001400140014D8
:10187000001480818923808315C08081822B80831E
:101880000014001480818923808300140014001444
:1018900000140014001400140014001400140014A8
:1018A000001400140014001432FF16C08081822B33
:1018B0008083001400140014001400140014001499
:1018C0000014001400140014001400140014001478
:1018D00080818923808315C08081822B80830014BE
:1018E00000148081892380830014001400140014E4
:1018F0000014001400140014001400140014001448
:1019000000140014001431FF16C08081822B8083E4
:101910000014001400140014001400140014001427
:10192000001400140014001400140014001480812A
:101930008923808315C08081822B8083001400144A
:101940008081892380830014001400140014001483
:1019500000140014001400140014001400140014E7
:101960000014001430FF16C08081822B8083001485
:1019700000140014001400140014001400140014C7
:101980000014001400140014001400148081892332
:10199000808315C08081822B808300140014808195
:1019A0008923808300140014001400140014001410
:1019B0000014001400140014001400140014001487
:1019C000001412963C91129737FF16C08081822B2B
:1019D0008083001400140014001400140014001478
:1019E0000014001400140014001400140014001457
:1019F00080818923808315C08081822B808300149D
:101A000000148081892380830014001400140014C2
:101A10000014001400140014001400140014001426
:101A200000140014001436FF16C08081822B8083BE
:101A30000014001400140014001400140014001406
:101A40000014001400140014001400140014808109
:101A50008923808315C08081822B80830014001429
:101A60008081892380830014001400140014001462
:101A700000140014001400140014001400140014C6
:101A80000014001435FF16C08081822B808300145F
:101A900000140014001400140014001400140014A6
:101AA0000014001400140014001400148081892311
:101AB000808315C08081822B808300140014808174
:101AC00089238083001400140014001400140014EF
:101AD0000014001400140014001400140014001466
:101AE000001434FF16C08081822B80830014001400
:101AF0000014001400140014001400140014001446
:101B000000140014001400140014808189238083C1
:101B100015C08081822B808300140014808189236A
:101B20008083001400140014001400140014001426
:101B30000014001400140014001400140014001405
:101B400033FF16C08081822B8083001400140014A0
:101B500000140014001400140014001400140014E5
:101B6000001400140014001480818923808315C0A0
:101B70008081822B808300140014808189238083DC
:101B800000140014001400140014001400140014B5
:101B9000001400140014001400140014001432FF88
:101BA00016C08081822B808300140014001400145E
:101BB0000014001400140014001400140014001485
:101BC00000140014001480818923808315C0808153
:101BD000822B808300140014808189238083001469
:101BE0000014001400140014001400140014001455
:101BF00000140014001400140014001431FF16C067
:101C00008081822B808300140014001400140014BF
:101C10000014001400140014001400140014001424
:101C20000014001480818923808315C08081822B59
:101C300080830014001480818923808300140014A1
:101C400000140014001400140014001400140014F4
:101C50000014001400140014001430FF16C080811A
:101C6000822B80830014001400140014001400144C
:101C700000140014001400140014001400140014C4
:101C8000001480818923808315C08081822B80830A
:101C90000014001480818923808300140014001430
:101CA0000014001400140014001400140014001494
:101CB0000014001400140014139602C0922F909583
:101CC000A617B70709F089CB4F5F5F4F888D998DB5
:101CD0004817590708F45CCB78940EC3803109F09B
:101CE000CDC2F8941A86A889B98940E050E0BEC2F6
:101CF000CA01880F991FEE89FF89E80FF91F6081DB
:101D000071816A0F7B1FE0913601F0913701E80F76
:101D1000F91F0190F081E02DEE0FFF1FE455FF4FFA
:101D20002491EA8DFB8DE80FF91F0190F081E02DE1
:101D3000EF37F10509F092C297C23C9137FF0CC012
:101D40008081822B8083001400140014001400147E
:101D50008081892380830BC08081822B8083001443
:101D6000001480818923808300140014001400145F
:101D7000001436FF0CC08081822B80830014001475
:101D80000014001400148081892380830BC080819B
:101D9000822B8083001400148081892380830014A7
:101DA000001400140014001435FF0CC08081822B35
:101DB000808300140014001400140014808189230F
:101DC00080830BC08081822B80830014001480816B
:101DD000892380830014001400140014001434FFBD
:101DE0000CC08081822B8083001400140014001426
:101DF00000148081892380830BC08081822B8083A3
:101E000000140014808189238083001400140014BE
:101E10000014001433FF0CC08081822B80830014D7
:101E200000140014001400148081892380830BC0E7
:101E30008081822B80830014001480818923808319
:101E40000014001400140014001432FF0CC0808130
:101E5000822B80830014001400140014001480816D
:101E6000892380830BC08081822B8083001400141F
:101E7000808189238083001400140014001400144E
:101E800031FF0CC08081822B808300140014001469
:101E9000001400148081892380830BC08081822BF1
:101EA000808300140014808189238083001400142F
:101EB00000140014001430FF0CC08081822B80833A
:101EC00000140014001400140014808189238083FE
:101ED0000BC08081822B80830014001480818923B1
:101EE00080830014001400140014001411963C9117
:101EF000119737FF0CC08081822B8083001400145F
:101F00000014001400148081892380830BC0808119
:101F1000822B808300140014808189238083001425
:101F2000001400140014001436FF0CC08081822BB2
:101F3000808300140014001400140014808189238D
:101F400080830BC08081822B8083001400148081E9
:101F5000892380830014001400140014001435FF3A
:101F60000CC08081822B80830014001400140014A4
:101F700000148081892380830BC08081822B808321
:101F8000001400148081892380830014001400143D
:101F90000014001434FF0CC08081822B8083001455
:101FA00000140014001400148081892380830BC066
:101FB0008081822B80830014001480818923808398
:101FC0000014001400140014001433FF0CC08081AE
:101FD000822B8083001400140014001400148081EC
:101FE000892380830BC08081822B8083001400149E
:101FF00080818923808300140014001400140014CD
:1020000032FF0CC08081822B8083001400140014E6
:10201000001400148081892380830BC08081822B6F
:1020200080830014001480818923808300140014AD
:1020300000140014001431FF0CC08081822B8083B7
:10204000001400140014001400148081892380837C
:102050000BC08081822B808300140014808189232F
:1020600080830014001400140014001430FF0CC00E
:102070008081822B8083001400140014001400144B
:102080008081892380830BC08081822B8083001410
:10209000001480818923808300140014001400142C
:1020A000001412963C91129737FF0CC08081822B4E
:1020B000808300140014001400140014808189230C
:1020C00080830BC08081822B808300140014808168
:1020D000892380830014001400140014001436FFB8
:1020E0000CC08081822B8083001400140014001423
:1020F00000148081892380830BC08081822B8083A0
:1021000000140014808189238083001400140014BB
:102110000014001435FF0CC08081822B80830014D2
:1021200000140014001400148081892380830BC0E4
:102130008081822B80830014001480818923808316
:102140000014001400140014001434FF0CC080812B
:10215000822B80830014001400140014001480816A
:10216000892380830BC08081822B8083001400141C
:10217000808189238083001400140014001400144B
:1021800033FF0CC08081822B808300140014001464
:10219000001400148081892380830BC08081822BEE
:1021A000808300140014808189238083001400142C
:1021B00000140014001432FF0CC08081822B808335
:1021C00000140014001400140014808189238083FB
:1021D0000BC08081822B80830014001480818923AE
:1021E00080830014001400140014001431FF0CC08C
:1021F0008081822B808300140014001400140014CA
:102200008081892380830BC08081822B808300148E
:1022100000148081892380830014001400140014AA
:10222000001430FF0CC08081822B808300140014C6
:102230000014001400148081892380830BC08081E6
:10224000822B8083001400148081892380830014F2
:102250000014001400140014139602C0922F9095DD
:10226000A617B70709F069CD4F5F5F4F888D998D2D
:102270004817590708F43CCD78943EC08032E1F508
:10228000F894E889F9892A893B8916C00DB407FEBC
:10229000FDCF8081869580688EBD0DB407FEFDCF91
:1022A0008181869580688EBD0DB407FEFDCF828149
:1022B000869580688EBD3396E217F30739F78F81D4
:1022C000988581549F4F60EC70E00E949619CB0175
:1022D0000CC00DB407FEFDCF1EBC0DB407FEFDCF34
:1022E0001EBC0DB407FEFDCF1EBC01972FEF8F3F24
:1022F000920779F71A867894DF91CF910895FC01BF
:10230000618708951F93CF93DF93EC0110928000B3
:1023100080E18093810069817A8180E090E020EA09
:1023200036E841E050E0E3D72B813C814D815E816E
:102330000E94A91910912D01123021F0143011F0D2
:10234000113031F460E472E48FE090E00E94A9194A
:10235000B901CA0120E034E244EF50E0C8D720E8D8
:1023600034E84EE150E0F5D7C901DA019C01AD0136
:10237000123049F4233431054105510524F423E496
:1023800030E040E050E091E0988330938700209364
:10239000860080918100887F8093810090936F00F8
:1023A0007894DF91CF911F91089510922B0182E3D1
:1023B00090E0909324018093230110922E011092BB
:1023C0002F01109230011092310110922C0181E006
:1023D00080932D0110922501109226011092270161
:1023E0001092280110923B0110923A01109237018D
:1023F00010923601109239011092380108954F92CF
:102400005F926F927F928F929F92AF92BF92CF9284
:10241000DF92EF92FF920F931F93DF93CF9300D041
:1024200000D0CDB7DEB74C01DC011B968C911B9719
:10243000803109F458C0803409F455C0229A209A9A
:10244000219A239A2A98289829982B988CB58065E8
:102450008CBD8CB58C7F8CBD8DB58EB519968C914D
:102460008330F9F0843030F4813009F4C2C0823016
:1024700088F41BC0853041F0853018F0863071F447
:1024800006C08CB5826008C08CB582600CC08CB56B
:1024900082608CBD8CB581608CBD07C08CB58260BC
:1024A0008CBD8CB581608CBDA4C08DB58160A3C08E
:1024B0008701000F111FD4015496ED91FC9155979F
:1024C000E00FF11F808185D1D4015496ED91FC91EC
:1024D0005597E00FF11F8081E82FF0E08BD1089431
:1024E000E11CF11C02C0EE24FF24F401808D918DCB
:1024F000E816F906E8F2D4011B969C91892F8150C9
:10250000823020F0943009F078C006C0903109F490
:1025100074C0903409F471C01EBC0E9472021A8209
:1025200019820FB6F894E0904F01F090500100919D
:102530005101109152010FBE1C821B8205C08B817C
:102540009C8101969C838B838B819C8180519742D7
:10255000B4F30FB6F89440904F0150905001609042
:102560005101709052010FBEF40114861586168633
:1025700017869385892F8150823010F0943029F589
:102580000FB6F894A0904F01B0905001C090510147
:10259000D09052010FBE1C821B8207C00E947202A3
:1025A0008B819C8101969C838B838B819C81805144
:1025B0009742A4F30FB6F89480914F019091500187
:1025C000A0915101B09152010FBEE418F50806091F
:1025D0001709E80EF91E0A1F1B1FEA18FB080C0951
:1025E0001D09D4011396ED92FD920D931C9316973D
:1025F00004C08DB58E7F8DBD7ECF0F900F900F9054
:102600000F90CF91DF911F910F91FF90EF90DF908E
:10261000CF90BF90AF909F908F907F906F905F9082
:102620004F900895CF93DF93EC018A899B89909313
:102630004301809342018F81988563E070E076D6F4
:1026400060934801CE01DBDE9B85892F815082306B
:1026500010F0943039F46AE070E080E090E0A8D1A6
:10266000CE0150DE8B858032A1F48F8198850CC01D
:102670001EBC0DB407FEFDCF1EBC0DB407FEFDCF82
:102680001EBC0DB407FEFDCF01972FEF8F3F9207C1
:1026900079F7DF91CF9108950F931F93CF93DF9335
:1026A000BC018230910510F462E070E0E0916101BC
:1026B000F0916201A0E0B0E040E050E024C08081F1
:1026C000918186179707D0F08617970771F482815A
:1026D0009381109729F013969C938E9312972CC098
:1026E000909362018093610127C04115510519F053
:1026F0008417950718F4EF018D01AC01DF01828189
:1027000093819C01F9013097D1F641155105F9F0FB
:10271000CA01861B970B8430910580F48A819B81C6
:102720000115110521F0F8019383828304C0909371
:10273000620180936101FE01329645C0FE01E80FFF
:10274000F91F619371930297998388833CC08091AC
:10275000490190914A01892B41F4809105019091A2
:10276000060190934A0180934901409107015091DD
:1027700008014115510541F44DB75EB78091030141
:1027800090910401481B590B2091490130914A0155
:1027900024173507B0F4CA01821B930B86179707DD
:1027A00080F0AB014E5F5F4F8417950750F0420FEA
:1027B000531F50934A0140934901F901619371936A
:1027C00002C0E0E0F0E0CF01DF91CF911F910F91C7
:1027D0000895893170F4ECEAF0E0880FE80FF11DFC
:1027E0009591E491F0E02FB7F8948181892B818352
:1027F0002FBF0895E93120F4EE0FEF5FFB4E0994EF
:10280000089528980895299808952A9808952B984E
:1028100008952F9838C0589826C0599808955A9806
:1028200008955B980895469834C0479838C05E98DC
:1028300008955F983AC02C9808952D9818C02E9846
:102840001CC08F9808958E9808958D9808958C983F
:10285000089589980895889808955C9808955D98DA
:10286000089576980895E4B5EF7DE4BD0895E0916C
:102870008000EF77E09380000895E0918000EF7D85
:10288000E09380000895E0918000E77FE09380006E
:102890000895E0919000EF77E09390000895E09123
:1028A000C000EF77E093C0000895E091C200E77F99
:1028B000E093C20008951DBA109268001CBC10BEBF
:1028C0001FBA10927A0010926E0010926F00109250
:1028D0007100109272001092C900ECEBF0E01082CF
:1028E00014B817B81AB81DB810BA108215B818B8AD
:1028F0001BB81EB811BA0895F89480E29EE40197BF
:10290000F1F781E08093E00080E28093D80080E6D8
:102910009AEE0197F1F7CFDF0C94003FFFCFF894C8
:10292000CADF80E69AEE0197F1F70C940000FFCF22
:102930008F938FB78F93809153018D5F8D37D0F434
:102940008093530180914F018F5F80934F01D8F0A6
:10295000809150018F4F80935001A8F080915101D8
:102960008F4F8093510178F0809152018F4F809367
:10297000520109C08D578093530180914F018E5FA2
:1029800080934F0128F780914B018C5F80934B011E
:1029900058F080914C018F4F80934C0128F080912A
:1029A0004D018F4F80934D018F918FBF8F9118955F
:1029B0009B01AC0114D0FB010CC011D06E1B7F0B2E
:1029C000685E7340D0F32150304040405040E851A1
:1029D000FC4F211531054105510579F708950FB6D2
:1029E000F89466B515B270914B0180914C019091AD
:1029F0004D010FBE10FE05C06F3F19F07C5F8F4F79
:102A00009F4F11240024660F001C660F001C7029C4
:102A10000895F894E1E6F0E020E82083108283E056
:102A200084BD85BDEEE6F0E080818160808391E029
:102A30009093800082E08093810090939000809337
:102A400091008093C00084E08093C1009093C20005
:102A50009093C3001092C40086E880937A0020937C
:102A60007B0010927E0010927D0002D07894089531
:102A70008091D80087FF02C085FF1BC081E0809352
:102A8000D70080EA8093D80082E189BD09B400FEB6
:102A9000FDCF80E98093D8001092E000109263018E
:102AA00010926401109265011092E1008DE0809314
:102AB000E20008951F920F920FB60F9211242F93E8
:102AC0003F934F935F936F937F938F939F93AF93B6
:102AD000BF93EF93FF931092E9008091E80083FF8A
:102AE00057C12091F1009091F1004091F100509177
:102AF000F1006091F1007091F100A091F100B091AE
:102B0000F10082EF8093E800963009F044C0EDE0D8
:102B1000F1E020E0859195918417950711F03596A5
:102B200017C0859195918617970711F0339610C0BD
:102B3000259135914491CD01AF3FB10519F010F0C9
:102B40008FEF90E0841708F4482FF9015EEF04C07E
:102B50002F5F2630F9F61CC18091E800282F30E065
:102B6000C90185709070892BB9F322FD14C1242FFF
:102B7000413208F020E2922F04C085918093F10049
:102B800091509923D1F7421B5093E800442321F739
:102B9000203211F300C1953061F48EEF8093E8008C
:102BA0008091E80080FFFCCF842F80688093E30051
:102BB000F2C0993009F5222309F0EAC0409363017D
:102BC00010926501109254018EEF8093E800E7E3C4
:102BD000F1E091E09093E90085918093EB008823E8
:102BE00031F085918093EC0085918093ED009F5F9B
:102BF000953081F78EE1C7C0983061F4203809F034
:102C0000C7C08091E80080FFFCCF80916301809372
:102C1000F10096C09132A9F4213A09F0B9C080912F
:102C2000E80080FFFCCF20E030E0F901E75FFE4FD5
:102C300080818093F1002F5F3F4F27303105A9F746
:102C40007FC0903209F04BC0213209F0A1C08091C1
:102C5000E80082FFFCCF20E030E0F901E75FFE4FA3
:102C60008091F10080832F5F3F4F27303105A9F716
:102C70008BEF8093E8008EEF8093E800809109014C
:102C800090910A01A0910B01B0910C018638910539
:102C9000A105B10519F48FE08093550180910901D8
:102CA00090910A01A0910B01B0910C018639910518
:102CB000A105B10509F06FC084E08093E9002FEF12
:102CC00006C02093E8008091E80082FDFCCF80914F
:102CD000EE0090E083709070892B99F720DE92329D
:102CE00051F4213209F054C0409365018091E8000D
:102CF00080FFFCCF25C0933241F4213209F048C057
:102D00008091E80080FFFCCF1BC09923E9F48091FB
:102D1000E80080FFFCCF223811F080E00DC0609306
:102D2000E9008091EB0090E025E0969587952A9543
:102D3000E1F781701092E9008093F1001092F100A8
:102D40008EEF8093E80027C0913011F0933001F5A9
:102D50002230F1F4452BE1F4262F2F77822F81507A
:102D60008630B0F48EEF8093E8002093E900933032
:102D700079F089E18093EB0081E090E002C0880F58
:102D8000991F2A95E2F78093EA001092EA0003C0A7
:102D900081E28093EB00FF91EF91BF91AF919F9102
:102DA0008F917F916F915F914F913F912F910F90F4
:102DB0000FBE0F901F9018951F920F920FB60F9293
:102DC00011242F933F934F935F936F937F938F9330
:102DD0009F93AF93BF93EF93FF938091E100109285
:102DE000E100982F83FF11C01092E90081E08093E9
:102DF000EB001092EC0082E28093ED0088E080937B
:102E0000F000109263011092650192FF1DC0809145
:102E100063018823C9F080915401882359F08150BF
:102E200080935401882331F484E08093E9008AE39D
:102E30008093E80080915501882331F08150809380
:102E40005501882309F458DD90FF0CC080E1809380
:102E5000E2001092630181E08093640180EA809334
:102E6000D80019BC80916401882379F094FF0DC0CB
:102E700082E189BD09B400FEFDCF80E98093D800CE
:102E80008DE08093E20010926401FF91EF91BF9179
:102E9000AF919F918F917F916F915F914F913F91F2
:102EA0002F910F900FBE0F901F901895B2DD0E94CA
:102EB0008E010E944201FDCFDF93CF930F92CDB7D9
:102EC000DEB7FC016983A081B18112962D913C91FE
:102ED0001397BE016F5F7F4F41E050E0F901099504
:102EE0000F90CF91DF910895FC019FB7F8948091E6
:102EF0006301882311F420E010C083E08093E9008F
:102F00002091F200222349F48091E80082FF05C05D
:102F100085FD03C08BE68093E8009FBF8085918587
:102F200097FD03C02F3F09F02F5F822F90E0089597
:102F3000CF93DF93EC018885998597FF09C0E881DD
:102F4000F9810680F781E02DCE0109959987888760
:102F500088859985DF91CF910895FC012085318581
:102F600037FD05C08FEF9FEF9187808722C02FB775
:102F7000F89480916301882369F083E08093E900ED
:102F80009BE68091E80085FD09C082FF03C0909315
:102F9000E800F7CF2FBF2FEF3FEF0CC09091F1006B
:102FA0008091E80085FD03C08BE68093E8002FBF89
:102FB000292F30E0C90108959FB7F89480916301EB
:102FC000882361F080915401882341F084E080934C
:102FD000E9008AE38093E800109254019FBF0895AE
:102FE0006F927F928F929F92AF92BF92CF92DF9219
:102FF000EF92FF920F931F93CF93DF933C018B01CE
:1030000080916301882329F481E0D30112968C9387
:1030100011C03FB7F89484E08093E9008091560195
:10302000882369F08091E80085FD07C03FBF81E0FB
:10303000E3018A8388249924DAC0109256018824F7
:103040009924F4E0AF2EE0E4BE2E71EFE72EF12CD0
:103050006AE3C62E23E0D22EC5C09091E400915FB2
:103060008091E80085FD19C03FBF8091E400891779
:1030700031F481E080935601F3018283B8C08091DE
:103080006301882329F481E0D30112968C93AFC0A9
:103090003FB7F894A092E900E3CF8091F2002B2D86
:1030A000281B822F90E04817590708F4242F622F1D
:1030B00070E0E801D701E0E4E21BE03428F4EE0F11
:1030C000FF27EB59F74E099480C089918C93899121
:1030D0008C9389918C9389918C9389918C9389910C
:1030E0008C9389918C9389918C9389918C938991FC
:1030F0008C9389918C9389918C9389918C938991EC
:103100008C9389918C9389918C9389918C938991DB
:103110008C9389918C9389918C9389918C938991CB
:103120008C9389918C9389918C9389918C938991BB
:103130008C9389918C9389918C9389918C938991AB
:103140008C9389918C9389918C9389918C9389919B
:103150008C9389918C9389918C9389918C9389918B
:103160008C9389918C9389918C9389918C9389917B
:103170008C9389918C9389918C9389918C9389916B
:103180008C9389918C9389918C9389918C9389915B
:103190008C9389918C9389918C9389918C9389914B
:1031A0008C9389918C9389918C9389918C9389913B
:1031B0008C9389918C9389918C9389918C9389912B
:1031C0008C9389918C9389918C938E018091E800E6
:1031D00085FD02C0C092E800461B570B860E971E65
:1031E000D09254014115510509F037CF3FBFC401BA
:1031F000DF91CF911F910F91FF90EF90DF90CF90D3
:10320000BF90AF909F908F907F906F900895E7E56B
:10321000F1E08AE0DF011D928A95E9F710925901E9
:1032200088EE93E0A0E0B0E080935A0190935B01B8
:10323000A0935C01B0935D0110925E0184E191E086
:10324000909358018093570108952FEF3FEFFC01B1
:10325000318720870DDC0FB6F89480914F01909153
:103260005001A0915101B09152010FBEAC0180916B
:103270006301882329F068EC70E080E090E098CB4F
:1032800080916401882309F10FB6F89480914F0171
:1032900090915001A0915101B09152010FBE9C013B
:1032A00010C00FB6F89480914F0190915001A091F9
:1032B0005101B09152010FBE821B930B8B3F9105C0
:1032C000A8F480916401882361F70FB6F894809187
:1032D0004F0190915001A0915101B09152010FBE48
:1032E000841B950B855C994008F4C1CF0895629FBB
:1032F000D001739FF001829FE00DF11D649FE00DEE
:10330000F11D929FF00D839FF00D749FF00D659F4E
:10331000F00D9927729FB00DE11DF91F639FB00D4D
:10332000E11DF91FBD01CF011124089597FB092E5E
:1033300007260AD077FD04D02ED006D000201AF43C
:10334000709561957F4F0895F6F7909581959F4F01
:103350000895A1E21A2EAA1BBB1BFD010DC0AA1FD6
:10336000BB1FEE1FFF1FA217B307E407F50720F0EE
:10337000A21BB30BE40BF50B661F771F881F991F69
:103380001A9469F760957095809590959B01AC01B2
:10339000BD01CF010895AA1BBB1B51E107C0AA1FA5
:1033A000BB1FA617B70710F0A61BB70B881F991FE6
:1033B0005A95A9F780959095BC01CD010895EE0F1F
:0E33C000FF1F0590F491E02D0994F894FFCFC3
:1033CE0001010180006601000000E100000000081C
:1033DE00000000005C17F0177417AD179817DC1774
:00000001FF
